{
  "contractName": "BankTransaction",
  "abi": [
    {
      "inputs": [
        {
          "internalType": "address",
          "name": "_tokenERC20Address",
          "type": "address"
        }
      ],
      "stateMutability": "nonpayable",
      "type": "constructor"
    },
    {
      "inputs": [],
      "name": "tokenAddress",
      "outputs": [
        {
          "internalType": "contract IERC20",
          "name": "",
          "type": "address"
        }
      ],
      "stateMutability": "view",
      "type": "function"
    },
    {
      "inputs": [
        {
          "internalType": "address",
          "name": "_receiverIdentifier",
          "type": "address"
        },
        {
          "internalType": "uint256",
          "name": "_amount",
          "type": "uint256"
        },
        {
          "internalType": "string",
          "name": "_note",
          "type": "string"
        }
      ],
      "name": "createNewTransaction",
      "outputs": [],
      "stateMutability": "nonpayable",
      "type": "function"
    },
    {
      "inputs": [
        {
          "internalType": "uint256",
          "name": "_receiptIdentifier",
          "type": "uint256"
        }
      ],
      "name": "getPaymentInformationByReceiptIdentifier",
      "outputs": [
        {
          "components": [
            {
              "internalType": "uint256",
              "name": "receiptIdentifier",
              "type": "uint256"
            },
            {
              "internalType": "address",
              "name": "senderIdentifier",
              "type": "address"
            },
            {
              "internalType": "address",
              "name": "receiverIdentifier",
              "type": "address"
            },
            {
              "internalType": "uint256",
              "name": "amountOfPayment",
              "type": "uint256"
            },
            {
              "internalType": "uint256",
              "name": "timeTransactionValidated",
              "type": "uint256"
            },
            {
              "internalType": "string",
              "name": "noteTransaction",
              "type": "string"
            },
            {
              "internalType": "bytes32",
              "name": "hashReceipt",
              "type": "bytes32"
            }
          ],
          "internalType": "struct PaymentInformation",
          "name": "",
          "type": "tuple"
        }
      ],
      "stateMutability": "view",
      "type": "function"
    },
    {
      "inputs": [],
      "name": "getMyPaymentInformationList",
      "outputs": [
        {
          "components": [
            {
              "internalType": "uint256",
              "name": "receiptIdentifier",
              "type": "uint256"
            },
            {
              "internalType": "address",
              "name": "senderIdentifier",
              "type": "address"
            },
            {
              "internalType": "address",
              "name": "receiverIdentifier",
              "type": "address"
            },
            {
              "internalType": "uint256",
              "name": "amountOfPayment",
              "type": "uint256"
            },
            {
              "internalType": "uint256",
              "name": "timeTransactionValidated",
              "type": "uint256"
            },
            {
              "internalType": "string",
              "name": "noteTransaction",
              "type": "string"
            },
            {
              "internalType": "bytes32",
              "name": "hashReceipt",
              "type": "bytes32"
            }
          ],
          "internalType": "struct PaymentInformation[]",
          "name": "_listReceipts",
          "type": "tuple[]"
        }
      ],
      "stateMutability": "view",
      "type": "function"
    },
    {
      "inputs": [],
      "name": "getMyPaymentTransactionCount",
      "outputs": [
        {
          "internalType": "uint256",
          "name": "",
          "type": "uint256"
        }
      ],
      "stateMutability": "view",
      "type": "function"
    }
  ],
  "bytecode": "0x6080604052600060015534801561001557600080fd5b50604051610a49380380610a49833981016040819052610034916100d9565b6001600160a01b0381166100b45760405162461bcd60e51b815260206004820152603660248201527f54686520746f6b656e20416464726573732073686f756c646e2774206265206560448201527f7175616c20746865207a65726f2d616464726573732e00000000000000000000606482015260840160405180910390fd5b600080546001600160a01b0319166001600160a01b0392909216919091179055610109565b6000602082840312156100eb57600080fd5b81516001600160a01b038116811461010257600080fd5b9392505050565b610931806101186000396000f3fe608060405234801561001057600080fd5b50600436106100575760003560e01c80636fdf37101461005c578063769c38f81461007a578063815bb4551461008f5780639d76ea58146100af578063ed42f734146100da575b600080fd5b6100646100f8565b6040516100719190610713565b60405180910390f35b61008d61008836600461078b565b610242565b005b6100a261009d366004610864565b610430565b604051610071919061087d565b6000546100c2906001600160a01b031681565b6040516001600160a01b039091168152602001610071565b33600090815260026020526040902054604051908152602001610071565b336000908152600260209081526040808320805482518185028101850190935280835260609492939192909184015b828210156102395760008481526020908190206040805160e081018252600786029092018054835260018101546001600160a01b0390811694840194909452600281015490931690820152600382015460608201526004820154608082015260058201805491929160a08401919061019e90610897565b80601f01602080910402602001604051908101604052809291908181526020018280546101ca90610897565b80156102175780601f106101ec57610100808354040283529160200191610217565b820191906000526020600020905b8154815290600101906020018083116101fa57829003601f168201915b5050505050815260200160068201548152505081526020019060010190610127565b50505050905090565b60018054906000610252836108d2565b919050555060006040518060e001604052806001548152602001336001600160a01b03168152602001856001600160a01b031681526020018481526020014281526020018381526020016102f43387876040516bffffffffffffffffffffffff19606085811b8216602084015284901b166034820152604881018290526000906068016040516020818303038152906040528051906020012090509392505050565b90523360009081526002602081815260408084208054600180820183559186529483902086516007909602019485558583015190850180546001600160a01b03199081166001600160a01b0393841617909155918601519385018054909216931692909217909155606083015160038301556080830151600483015560a08301518051939450849361038c92600585019201906105d7565b5060c0919091015160069091015560018054600090815260036020818152604092839020855181558186015194810180546001600160a01b039687166001600160a01b03199182161790915593860151600282018054919096169416939093179093556060840151908201556080830151600482015560a08301518051849361041c9260058501929101906105d7565b5060c0820151816006015590505050505050565b6040805160e08101825260008082526020820181905291810182905260608082018390526080820183905260a082015260c0810191909152600082116104d55760405162461bcd60e51b815260206004820152603060248201527f546865205f726563656970744964656e7469666965722073686f756c6420626560448201526f1036b7b932903a3430b7103d32b9379760811b606482015260840160405180910390fd5b600082815260036020818152604092839020835160e0810185528154815260018201546001600160a01b03908116938201939093526002820154909216938201939093529082015460608201526004820154608082015260058201805491929160a08401919061054490610897565b80601f016020809104026020016040519081016040528092919081815260200182805461057090610897565b80156105bd5780601f10610592576101008083540402835291602001916105bd565b820191906000526020600020905b8154815290600101906020018083116105a057829003601f168201915b505050505081526020016006820154815250509050919050565b8280546105e390610897565b90600052602060002090601f016020900481019282610605576000855561064b565b82601f1061061e57805160ff191683800117855561064b565b8280016001018555821561064b579182015b8281111561064b578251825591602001919060010190610630565b5061065792915061065b565b5090565b5b80821115610657576000815560010161065c565b80518252600060208083015160018060a01b03808216838701528060408601511660408701525050606083015160608501526080830151608085015260a083015160e060a086015280518060e087015260005b818110156106e057828101840151878201610100015283016106c3565b818111156106f357600061010083890101525b5060c09485015194860194909452505050601f01601f1916016101000190565b6000602080830181845280855180835260408601915060408160051b870101925083870160005b8281101561076857603f19888603018452610756858351610670565b9450928501929085019060010161073a565b5092979650505050505050565b634e487b7160e01b600052604160045260246000fd5b6000806000606084860312156107a057600080fd5b83356001600160a01b03811681146107b757600080fd5b925060208401359150604084013567ffffffffffffffff808211156107db57600080fd5b818601915086601f8301126107ef57600080fd5b81358181111561080157610801610775565b604051601f8201601f19908116603f0116810190838211818310171561082957610829610775565b8160405282815289602084870101111561084257600080fd5b8260208601602083013760006020848301015280955050505050509250925092565b60006020828403121561087657600080fd5b5035919050565b6020815260006108906020830184610670565b9392505050565b600181811c908216806108ab57607f821691505b602082108114156108cc57634e487b7160e01b600052602260045260246000fd5b50919050565b60006000198214156108f457634e487b7160e01b600052601160045260246000fd5b506001019056fea26469706673582212207c5e78b15f45f4d690cf81c8db078a792bea0848158f3ce201c268be1201f0e964736f6c634300080b0033",
  "immutableReferences": {},
  "source": "// SPDX-License-Identifier: MIT\r\npragma solidity 0.8.11;\r\n\r\nimport \"@openzeppelin/contracts/token/ERC20/IERC20.sol\";\r\nimport \"./struct/PaymentInformation.sol\";\r\n\r\ncontract BankTransaction {\r\n    IERC20 public tokenAddress; \r\n\r\n    uint256 private currentReceiptIdentifier = 0;\r\n    mapping(address => PaymentInformation[]) private _accountReceipts;\r\n    mapping(uint256 => PaymentInformation) private _paymentInformationByReceiptIdentifier;\r\n\r\n    constructor(address _tokenERC20Address) {\r\n        require(_tokenERC20Address != address(0), \"The token Address shouldn't be equal the zero-address.\");\r\n        tokenAddress = IERC20(_tokenERC20Address);\r\n    }\r\n\r\n    function createNewTransaction(address _receiverIdentifier, uint256 _amount, string memory _note) public getNewReceiptIdentifier {\r\n        PaymentInformation memory paymentInfo = PaymentInformation({\r\n            receiptIdentifier: currentReceiptIdentifier,\r\n            senderIdentifier: msg.sender,\r\n            receiverIdentifier: _receiverIdentifier,\r\n            amountOfPayment: _amount,\r\n            timeTransactionValidated: block.timestamp,\r\n            noteTransaction: _note,\r\n            hashReceipt: hash(msg.sender, _receiverIdentifier, _amount)\r\n        });\r\n\r\n        _accountReceipts[msg.sender].push(paymentInfo);\r\n        _paymentInformationByReceiptIdentifier[currentReceiptIdentifier] = paymentInfo;\r\n    }\r\n\r\n    function getPaymentInformationByReceiptIdentifier(uint256 _receiptIdentifier) external view returns (PaymentInformation memory) {\r\n        require(_receiptIdentifier > 0, \"The _receiptIdentifier should be more than zero.\");\r\n        return _paymentInformationByReceiptIdentifier[_receiptIdentifier];\r\n    }\r\n\r\n    function getMyPaymentInformationList() external view returns (PaymentInformation[] memory _listReceipts) {\r\n        return _accountReceipts[msg.sender];\r\n    }\r\n\r\n    function getMyPaymentTransactionCount() public view returns (uint256) {\r\n        return _accountReceipts[msg.sender].length;\r\n    }\r\n\r\n    function hash(address _first, address _second, uint256 _amount) private pure returns (bytes32) {\r\n        return keccak256(abi.encodePacked(_first, _second, _amount));\r\n    }\r\n\r\n    modifier getNewReceiptIdentifier() {\r\n        currentReceiptIdentifier++;\r\n        _;\r\n    }\r\n}\r\n",
  "sourcePath": "D:\\Books\\welcome-to-ethereum\\dl_lab_1_BankTransaction\\contracts\\BankTransaction.sol",
  "compiler": {
    "name": "solc",
    "version": "0.8.11+commit.d7f03943.Emscripten.clang"
  },
  "schemaVersion": "3.4.4",
  "updatedAt": "2022-02-06T21:22:41.549Z",
  "devdoc": {
    "kind": "dev",
    "methods": {},
    "version": 1
  },
  "userdoc": {
    "kind": "user",
    "methods": {},
    "version": 1
  }
}