{
  "contractName": "BankTransaction",
  "abi": [
    {
      "inputs": [
        {
          "internalType": "address",
          "name": "_receiverIdentifier",
          "type": "address"
        },
        {
          "internalType": "uint256",
          "name": "_amount",
          "type": "uint256"
        },
        {
          "internalType": "string",
          "name": "_note",
          "type": "string"
        }
      ],
      "name": "createNewTransaction",
      "outputs": [],
      "stateMutability": "nonpayable",
      "type": "function"
    },
    {
      "inputs": [],
      "name": "myDonations",
      "outputs": [
        {
          "components": [
            {
              "internalType": "uint256",
              "name": "receiptIdentifier",
              "type": "uint256"
            },
            {
              "internalType": "address",
              "name": "senderIdentifier",
              "type": "address"
            },
            {
              "internalType": "address",
              "name": "receiverIdentifier",
              "type": "address"
            },
            {
              "internalType": "uint256",
              "name": "amountOfPayment",
              "type": "uint256"
            },
            {
              "internalType": "uint256",
              "name": "timeTransactionValidated",
              "type": "uint256"
            },
            {
              "internalType": "string",
              "name": "noteTransaction",
              "type": "string"
            },
            {
              "internalType": "string",
              "name": "hashReceipt",
              "type": "string"
            }
          ],
          "internalType": "struct BankTransaction.PaymentInformation[]",
          "name": "_listReceipts",
          "type": "tuple[]"
        }
      ],
      "stateMutability": "view",
      "type": "function"
    },
    {
      "inputs": [],
      "name": "myDonationsCount",
      "outputs": [
        {
          "internalType": "uint256",
          "name": "",
          "type": "uint256"
        }
      ],
      "stateMutability": "view",
      "type": "function"
    }
  ],
  "bytecode": "0x60806040526000805534801561001457600080fd5b506106a9806100246000396000f3fe608060405234801561001057600080fd5b50600436106100415760003560e01c80630180b97c146100465780631a57f7b414610069578063769c38f81461007e575b600080fd5b336000908152600160205260409020546040519081526020015b60405180910390f35b610071610093565b6040516100609190610456565b61009161008c366004610536565b610265565b005b336000908152600160209081526040808320805482518185028101850190935280835260609492939192909184015b8282101561025c5760008481526020908190206040805160e081018252600786029092018054835260018101546001600160a01b0390811694840194909452600281015490931690820152600382015460608201526004820154608082015260058201805491929160a0840191906101399061060f565b80601f01602080910402602001604051908101604052809291908181526020018280546101659061060f565b80156101b25780601f10610187576101008083540402835291602001916101b2565b820191906000526020600020905b81548152906001019060200180831161019557829003601f168201915b505050505081526020016006820180546101cb9061060f565b80601f01602080910402602001604051908101604052809291908181526020018280546101f79061060f565b80156102445780601f1061021957610100808354040283529160200191610244565b820191906000526020600020905b81548152906001019060200180831161022757829003601f168201915b505050505081525050815260200190600101906100c2565b50505050905090565b6000805490806102748361064a565b90915550506040805160e0810182526000805482523360208084018281526001600160a01b03898116868801908152606087018a8152426080890190815260a089018b81528a51808c018c526001808252600f60fb1b828a015260c08c019190915297895287875299882080548089018255908952978690208951600790990201978855935195870180549684166001600160a01b031997881617905590516002870180549190931695169490941790559151600384015590516004830155925180519293849361034b9260058501920190610370565b5060c08201518051610367916006840191602090910190610370565b50505050505050565b82805461037c9061060f565b90600052602060002090601f01602090048101928261039e57600085556103e4565b82601f106103b757805160ff19168380011785556103e4565b828001600101855582156103e4579182015b828111156103e45782518255916020019190600101906103c9565b506103f09291506103f4565b5090565b5b808211156103f057600081556001016103f5565b6000815180845260005b8181101561042f57602081850181015186830182015201610413565b81811115610441576000602083870101525b50601f01601f19169290920160200192915050565b60006020808301818452808551808352604092508286019150828160051b87010184880160005b8381101561051257888303603f19018552815180518452878101516001600160a01b0390811689860152878201511687850152606080820151908501526080808201519085015260a08082015160e082870181905291906104e083880182610409565b9250505060c080830151925085820381870152506104fe8183610409565b96890196945050509086019060010161047d565b509098975050505050505050565b634e487b7160e01b600052604160045260246000fd5b60008060006060848603121561054b57600080fd5b83356001600160a01b038116811461056257600080fd5b925060208401359150604084013567ffffffffffffffff8082111561058657600080fd5b818601915086601f83011261059a57600080fd5b8135818111156105ac576105ac610520565b604051601f8201601f19908116603f011681019083821181831017156105d4576105d4610520565b816040528281528960208487010111156105ed57600080fd5b8260208601602083013760006020848301015280955050505050509250925092565b600181811c9082168061062357607f821691505b6020821081141561064457634e487b7160e01b600052602260045260246000fd5b50919050565b600060001982141561066c57634e487b7160e01b600052601160045260246000fd5b506001019056fea264697066735822122047413e912239910fde53f56986b4e3b34271c777b84007244a91385427b6567a64736f6c634300080b0033",
  "immutableReferences": {},
  "source": "// SPDX-License-Identifier: MIT\r\npragma solidity 0.8.11;\r\n\r\ncontract BankTransaction {\r\n\r\n    struct PaymentInformation {\r\n        uint256 receiptIdentifier;\r\n\r\n        address senderIdentifier;\r\n        address receiverIdentifier;\r\n\r\n        uint256 amountOfPayment;\r\n\r\n        uint timeTransactionValidated;\r\n        string noteTransaction;\r\n\r\n        string hashReceipt; // need concatenate clientIdentifier + receiverIdentifier +  amountOfPayment + timeTransactionValidated (      Solidity .) address(uint256(keccak256(abi.encodePacked(addressA, addressB))))\r\n    }\r\n\r\n    uint256 private currentReceiptIdentifier = 0;\r\n    mapping(address => PaymentInformation[]) private _accountReceipts;\r\n\r\n\r\n/*\r\n    :   , \r\n      ,     .\r\n*/\r\n    function createNewTransaction(address _receiverIdentifier, uint256 _amount, string memory _note) public getNewReceiptIdentifier {\r\n        PaymentInformation memory paymentInfo = PaymentInformation({\r\n            receiptIdentifier: currentReceiptIdentifier,\r\n            senderIdentifier: msg.sender,\r\n            receiverIdentifier: _receiverIdentifier,\r\n            amountOfPayment: _amount,\r\n            timeTransactionValidated: block.timestamp,\r\n            noteTransaction: _note,\r\n            hashReceipt: \"x\"\r\n        });\r\n\r\n        _accountReceipts[msg.sender].push(paymentInfo);\r\n    }\r\n\r\n    function myDonations() public view returns (PaymentInformation[] memory _listReceipts)\r\n    {\r\n        return _accountReceipts[msg.sender];\r\n    }\r\n\r\n    function myDonationsCount() public view returns (uint256) {\r\n        return _accountReceipts[msg.sender].length;\r\n    }\r\n\r\n\r\n\r\n    modifier getNewReceiptIdentifier() {\r\n        currentReceiptIdentifier++;\r\n        _;\r\n    }\r\n}\r\n",
  "sourcePath": "D:\\Books\\welcome-to-ethereum\\dl_lab_1_BankTransaction\\contracts\\BankTransaction.sol",
  "compiler": {
    "name": "solc",
    "version": "0.8.11+commit.d7f03943.Emscripten.clang"
  },
  "schemaVersion": "3.4.4",
  "updatedAt": "2022-02-06T15:01:07.281Z",
  "devdoc": {
    "kind": "dev",
    "methods": {},
    "version": 1
  },
  "userdoc": {
    "kind": "user",
    "methods": {},
    "version": 1
  }
}